:020000040800F2
:1000000000A00020356001089D600108D51D010891
:100010009D6001089D6001089D60010800000000CE
:100020000000000000000000000000009D600108CA
:100030009D600108000000009D60010831A30008D8
:100040009D6001089D6001089D6001089D60010898
:100050009D6001089D600108DDFA0008D9FA0008DA
:100060009D6001089D6001089D6001089D60010878
:1000700019A2000809A20008AD3701089D60010817
:10008000F9A10008E9A100089D6001089D60010830
:100090009D6001089D6001089D600108D5FA000877
:1000A0002935010865350108193501088935010828
:1000B0005935010849350108393501089D600108A5
:1000C0009D6001089D6001089D6001089D60010818
:1000D0009D600108A53701089D3701089537010883
:1000E00041A300089D6001089D6001089D60010812
:1000F0009D6001089D6001089D6001089D600108E8
:100100000000000000000000000000009D600108E9
:100110009D6001089D6001089D6001089D600108C7
:100120009D6001089D6001089D6001089D600108B7
:100130009D6001089D6001080000000000000000B3
:100140009D6001089D6001089D600108000000009D
:10015000000000000000000000000000000000009F
:1001600000000000000000009D6001089D60010883
:100170009D60010800000000000000000000000079
:08018000000000009D60010871
:100188002DE9F04F2DED068B884F894B3B60AFB0C2
:1001980000237B600BF0C6FC18B90BF0B9FE12F017
:1001A800A3FF0BF0E1FC834A834D137843F001036E
:1001B8001370824B4FF47002C3F888200023099310
:1001C8000A932B6843F480332B602B6803F40033C5
:1001D8000A93099B013309930A9B1BB9099BB3F541
:1001E800A04FF2D12B6813F4003318BF01230A93F0
:1001F8000A9B012B00F0A380714EDFF8C091F37BBE
:10020800DFF8F4B1DFF8F4A1003318BF01233B7223
:100218006C4BC9F80C306B6AFB606B6A43F08073F7
:100228006B626B6943F4FC032EAC6B6103238DF89E
:100238006A3041F6FF7324F8503D4FF09040214654
:1002480007F0E4FD4FF6FF7358462146ADF86830D5
:1002580007F0DCFD5C48214607F0D8FD5B482146E5
:1002680007F0D4FD5A48214607F0D0FD0DF1B80833
:100278005848214607F0CAFD4FF4007228F86C2D43
:1002880004238DF84E304FF09040022341468DF8FC
:100298004F30049307F0BAFD4FF480624146584648
:1002A800ADF84C2007F0B2FD20460AF0C3FA4A49DF
:1002B8001A9AB2FBF1F2494949480A600021102212
:1002C80017F0EDFD4749484A4A60F02289F8232093
:1002D800072000228A60DFF8289103920860B1683D
:1002E800C9F800109AE8030084E8030069691A98BD
:1002F80041F4802169610821CBF818101BA907F087
:1003080085FD049B8DF86B306B692F484FF40041D5
:10031800ADF8681043F4002301218DF86A106B6171
:10032800214607F073FD039A304B31491960104696
:100338000EF0AEFCD9F80030190729D468E02D4B2F
:1003480012221A606B686B606B686B606B6843F4B1
:1003580080636B606B6823F47C136B606B6843F499
:10036800E8136B602B6843F080732B602A68124B8C
:100378009201FBD55A6822F003025A605A6842F08B
:1003880002025A606B6803F00C03082BFAD133E7BA
:1003980096F89831012B3BD8044A96F89B31D268DD
:1003A80012F0805200F0288632E000BFF8030020E7
:1003B800D7280108483700200010024000ED00E06F
:1003C8008C2B00200005FA0500080048000C0048A6
:1003D800001000480014004840420F00E41B0020B1
:1003E800E81B002010E000E03F19010094390020CC
:1003F80039E300080020024000040048F47F0108A7
:10040800F0330020C34B002283F89B2112F006FF33
:10041800642009F02CFFC04800214FF48C7217F0BB
:100428003EFDEB69BD4843F00703EB61AB6943F45C
:10043800E123AB616B6943F4C0236B6100F58875F8
:10044800837B416890F80FE003F00702DB0801EBBB
:1004580083039200196A4FF00F0C0EFA02FE0CFA91
:1004680002F221EA02021A62196A10304EEA010207
:10047800A8421A62E4D10022A94900235354013248
:10048800112AF9D1A74AFF2199540133072BF9D131
:10049800A54D00212846102217F001FDA34B2B6023
:1004A8006B60AB60EB60A24BD9F80050A14A1A60B0
:1004B800A14800213C2217F0F2FCC5F3801905235E
:1004C8004FF0000E9D4A9C481EF802100C2202FBB9
:1004D8000EF21154B9F1000F07D11E3901299FBF3F
:1004E800FF2103F1FF331154DBB20EF1010EBEF10F
:1004F800050FE7D1924A96F805B01370914A9248D1
:1005080082F800B0914ABA62C0320260904A9149BA
:1005180002EBCB02AB06527848BF0122CA62002226
:100528008D4940F2DC5021F812000132082AF7D137
:10053800404600211C2217F0B2FCDFF8308215F487
:10054800007A1ABF1994CDF80C80CDF80CA0BBF135
:100558000E0F03D00BF0EF03082B02D101238DF807
:100568005E30022009F01CFC18B14088003018BF2A
:100578000120C5F340038DF85330C5F340338DF89F
:100588004C30C5F380538DF84F30C5F3C03300F0BD
:1005980001008DF8503015F400638DF852008DF885
:1005A800559004D096F88C31581E43424341FA6A5C
:1005B800B6F84811ADF862101AF1000A18BF4FF0EA
:1005C800010A003218BF01228DF85820C5F30052E5
:1005D8008DF85920B6F84A21ADF85C20E904B6F840
:1005E800562148BF4B49ADF85A20C5F380428DF8D3
:1005F8005420B6F8542144BFB1F85011ADF8621038
:10060800B2F5FA7FADF8602084BF0022ADF8622011
:1006180096F8DE218DF8513087F83020C5F3004375
:10062800902205F0010BC5F3C0094C488DF85630EF
:1006380000218DF84DB08DF84E908DF857A017F029
:100648002EFC9DF85E20002A0CBF00220222BBF17E
:10065800000F02D1B9F1000F00D0013208EB820877
:100668004FF00009D8F82030A3F1020A2033049390
:100678003AF8022F4FF6FF739A4200F00C829DF869
:100688005210D3B2120AD6B279B12448344D00EBD5
:1006980003104168A94208D10189B1F5806F00F0C3
:1006A800F681B1F5006F00F0F2819DF8551031B177
:1006B80019011A4840582B49884200F0E8819DF8F2
:1006C800561079B11901154D68186D5826498D4293
:1006D80000F0DD814168B1F1904F03D1817B082999
:1006E80000F0D5819DF8531051B10C4800EB031070
:1006F8004168B1F1904F03D10189102900F0C781F9
:100708009DF8501000293AD00448154D00EB03100D
:100718002EE000BF8C2B002014240020A8A4010880
:100728000804002019040020D41B0020D9960008D2
:10073800A83300208A2D0020B033002006B001081D
:10074800701000205C0B0020A8250020A02B0020A2
:100758003CA90108F803002014100020D410002040
:100768000004004800040040002C0140DC7F010820
:100778004168A94203D10189042900F088819DF8C4
:10078800511051B1A24800EB03104168B1F1904FEC
:1007980003D10189202900F07A81199D7DB19C4FF0
:1007A800296807EB03177868884208D13989A8882F
:1007B800884200F06C81E888884200F06881022A4B
:1007C80002D19DF84C2003E0012A04D19DF84D2068
:1007D800002A00F05C819DF858108D4A1F0159B11C
:1007E8009DF85E1041B9A3F10E01012904D8D15931
:1007F8008848814208BF04269DF85910D51931B19F
:100808009DF85E1019B9043B032B40F21D81012E9F
:1008180055D1DFF810820692FF2188F8781088F801
:100828007910D11901F1080C91F80DE0486809898F
:10083800ADF868104FF0000B02218DF86B1088F8A6
:100848007CB01AA9C8F888508DF86AE0CDF814C0B1
:1008580088F834B0C8F838B0C8F83CB0C8F840B028
:10086800C8F874B088F87AB088F87BB007F0CEFA88
:10087800DDF814C0069A9CF80210D0595A4607F0C1
:100888006FFA28465946324612F0D0FE624AC8F836
:100898008C20624AC8F8902008F18C0108F1900277
:1008A800C8F894B0284612F017FF5D4B9A7803EB0E
:1008B800C202202151721A7901321A71E3E0022E24
:1008C80055D15FFA89F31C2101FB03FB554B8DF8C9
:1008D8006B605B444FF000084FF0010C83F87CC05C
:1008E80083F87D9083F87E8083F886800693C3F82A
:1008F8008850474BCDF81CC0D91901F1080291F86E
:100908000DE048680989ADF868101AA98DF86AE001
:10091800059207F07BFA3E4B059AD85991784246E2
:1009280007F01EFADDF81CC028466246414612F060
:100938007DFE069B3C49C3F88C1003F18C023B4BAF
:100948005360384BC2F8088003EB0B018C310A1D49
:10095800284612F0C1FE324B9A7803EBC2024021BE
:100968005172DA780132DA7009F101098BE0032E4D
:1009780068D19DF854302A4E2D4F8BB14FF6FF7237
:1009880000232846082196F8018007F068FA294BC9
:1009980047F82800C360B378192206EBC3032BE09D
:1009A800BDF8602096F80180B2F5FA7F12D9224B83
:1009B800B3FBF2F2284692B2BDF86230082107F084
:1009C8004EFA1E4B47F82800C360B3780D2206EB99
:1009D800C30311E01A4BB3FBF2F2284692B2BDF8FA
:1009E8006230012107F03BFA124B47F82800C36038
:1009F800B378092206EBC3035A72B37872780133CD
:100A080006F8332006EBC30301325D6072703AE0EA
:100A1800A8A40108004001409976000879770008E9
:100A2800D4100020F8030020A57D00087176000886
:100A3800E42300208977000800127A0099770008DB
:100A480040420F00042E22D1624EBDF85A20624B5C
:100A580093FBF2F2012192B2BDF85C303778284658
:100A680007F0FDF95D4BB27803EB8703013206EB23
:100A7800C201C3F85C010A234B70337806F83230A0
:100A880001334D603370534A937801339370049B5C
:100A98009A457FF4EDAD4F4A504D117885F87C1199
:100AA8004F49504B0F78A7F11701002602291E70F5
:100AB80090469E461AD8AB6A3344D3ED007AF5EED9
:100AC800407AF1EE10FA02D1EB6A63BB26E0464A9F
:100AD80006EB020C0FCB8CE80F009EF800301036A6
:100AE8000133C02E8EF80030E5D1EDE73F4B13F807
:100AF80037908EF8009003EBC703D3F804A0BAF13F
:100B0800000FE1D04E45DFDA374A330103EB020C20
:100B180053440FCB01368CE80F00F3E7344E3368AB
:100B2800DB0426D41FE0334B334A13F83700107028
:100B380003EBC7035E68002EF0D000238342EDDA92
:100B4800C3EBC3017218DFF8BC90D2F800A041F8DB
:100B580009A001EB090C9188ACF8041092798CF883
:100B680006200133EAE707F0EF03082B234B20D1D7
:100B780021E09EF80020012AF5D9214B03EB02124F
:100B8800103210339342EED053ED047AB6EE007A69
:100B980067EE877A43ED047A53ED057A67EE877A34
:100BA80043ED057A53ED037A67EE877A43ED037ACE
:100BB800E7E70E2F08D11A7842F010021A70182FA2
:100BC80022D10EF037FA1FE01A7822F010021A70BC
:100BD800192FF5E7D410002040420F00F803002039
:100BE8005C0B0020CB230020980A00203CA90108B8
:100BF800F0330020088E010834250020341A002024
:100C0800A00A0020352500200EF0F8F9904B98F83E
:100C180003209A8098F80420DA803368DFF854A219
:100C28008C4F58035EBF8C4B01221A708B4A137885
:100C380043F004031370DAF81C3043F48043CAF815
:100C48001C30DAF8103043F48043CAF81030DAF870
:100C5800143043F48023CAF814307B6A23F47003F9
:100C68007B627B6A43F4A0037B627B6A23F0706338
:100C78007B627B6A43F0A0637B627B6A23F07043EC
:100C88007B627B6A43F0A0437B627B6A23F4702318
:100C98007B627B6A43F4A0237B624FF00008022347
:100CA8004FF0030B4FF46042384621468DF86C3004
:100CB8004FF480598DF86DB08DF86E801A928DF8CA
:100CC8006F8010F0A5F90122384621468DF86C2076
:100CD800CDF868908DF86DB08DF86E808DF86F80C6
:100CE80010F096F9DAF8103043F48043CAF810305F
:100CF800DAF8103023F48043CAF81030584B9A8839
:100D080022F480521204120C9A809A8892B242EA13
:100D180009029A801A8802F4415242F4457242EA62
:100D28000B021A809A8822F470621204120C42F4A0
:100D3800E0629A809A8B22F400621204120C9A8361
:100D480007221A821A8892B242F040021A80C7F823
:100D58001890336803F41073B3F5107F63D0DAF892
:100D68001430DFF80C91C5F8809143F48023CAF859
:100D78001430DAF81C30DFF8DC8043F40013CAF8CA
:100D88001C30DAF8303023F01003CAF83030DAF8C3
:100D9800303043F01003CAF83030D8F8203023F050
:100DA8007063C8F82030D8F8203043F08063C8F862
:100DB8002030D8F8203023F07043C8F82030D8F815
:100DC800203043F08043C8F820304FF400431F938D
:100DD80002238DF83C3003232EAF8DF83D300123DC
:100DE8008DF83E30402347F8803D00244046394680
:100DF8008DF83F401A941B941C941D941E942094C3
:100E080010F006F98023404639460E9310F000F999
:100E18002B7A1B941C941D941E9420941F944C466A
:100E280053B3104B29E0104A1378104918F9010000
:100E38001F2802BFFF2008F8010003F1FF3308F163
:100E48000C0808BFDBB2B8F13C0FEED1137086E78F
:100E58006810002000040048C80F00204837002010
:100E680000380040300E500070100020B0330020D1
:100E78000054004000100240BA4BBB481A931AA90C
:100E88000FF0E7FF2368DFF804B343F001032360A2
:100E980034684FF0100904F400430493002104F46B
:100EA80000634A465846059316F0F9FF4FF6FF725D
:100EB8000E9202224FF00008032114408DF83D20C5
:100EC8008DF83E808DF83F808DF83C1010D04FF0A3
:100ED800904039460124CDF8389010F099F807224F
:100EE8008BF800408BF801808BF803208BF80240C8
:100EF800049B93B104229D480E92394610F088F85D
:100F08000C228BF8042007228BF8072001228BF88B
:100F1800054014448BF80620E4B2059B9BB12022BF
:100F28004FF0904039460E9210F072F802228BF87A
:100F38000C2007228BF80F2001228BF80D40144457
:100F48008BF80E20E4B2DAF82C208948884F22F476
:100F5800F872CAF82C20DAF82C2042F4D872CAF8B1
:100F68002C20DAF8142042F0805242F00202CAF82B
:100F780014200FF0C8FF1AA80FF09AFF7D4A1A92A2
:100F88007D4A1B92012C4FF0000294BF114680212C
:100F98001F914FF4807120914FF48061219120219D
:100FA80022914FF40051384623911AA91C921E929F
:100FB8002492ADF874400FF088FF3A6842F00102BD
:100FC8003A606E4FBA6822F04052BA60BA6842F08E
:100FD8008052BA600A2009F04AF9BA6822F08042C1
:100FE800BA60BA68BA60BA6842F00042BA60B968D2
:100FF800624A002934DAFAE7013B092B3FF608AACE
:10100800DAF84C00206021465846039206F0FEFEAE
:101018004FF40063CBF818303C2009F028F9039A04
:10102800924696F89B319A45BFF6ECA9DFF83CB199
:1010380008224FF40063CBF8182078200492ABF80C
:101048002830039309F008F9049A039BABF8282089
:101058007820CBF8183009F0FFF80AF1010AE0E728
:101068009168474821F040519160916841F00051E2
:10107800916087684349394041F468318160D0689C
:101088004149014041F40051D160116B013C21F00C
:101098000F010C431463002001220BEB00018C7834
:1010A800002C00F08880571C042A1BF800C0C9785F
:1010B800324BFFB20ED802EB42021C6B52004FF0CB
:1010C8001F0E0EFA02FE24EA0E040CFA02F2224364
:1010D8001A6331E0092A0DD80624053A6243D3F889
:1010E80034E01F2494402EEA04040CFA02F222434E
:1010F8005A6321E00E2A4FF0060E0FD8A2F10A0417
:101108000EFB04F4D3F838901F22A24029EA020EFD
:101118000CFA04F24EEA02029A630DE00F3A0EFB53
:1011280002F4D3F83C901F22A24029EA020E0CFADE
:1011380004F24EEA0202DA63BCF1090F0F4C27D918
:10114800A269A369ACF10A0202EB42024FF0070E52
:101158000EFA02FE23EA0E03A361A3699140194324
:10116800A16127E07A25E00000540040000400480F
:101178000804024040010050481E002000010050B1
:1011880000030050E010FCFF07C0FFFD381E0020E0
:10119800626963690CF1FF3202EB42024FF0380ECC
:1011A8000EFA02FE23EA0E0363616369033291407B
:1011B800194361613A46043010287FF46EAF9A4BA8
:1011C8009A6842F001029A601A461168964BC9075C
:1011D800FBD5DA6822F00202DA60DA6842F002022D
:1011E800DA60DA6842F00102DA609A6842F00402D2
:1011F8009A608E4BB3F85C219B46002A41F08280AE
:10120800BBF95E11002941F07D80BBF9601100290E
:1012180041F07880326893031FD5C82009F027F879
:10122800AE2007F01EF808B107F01FF8804C85F8CB
:101238008401C82009F01BF87E4AC5F888210021DE
:101248001422204616F02BFE0222E27010F01BFE3C
:1012580008F0E6FF784A0244A260784A9BF87131A8
:1012680012680493B2F862A0BBF80C307448059376
:1012780000210C229BF868819BF863719BF87241EE
:101288009BF810909BF81160DFF8C8B116F007FEC4
:10129800002114226B4816F002FE4FF0000C85F86E
:1012A8008CC161468BF88DC10C220BF5C870CDF846
:1012B80018C016F0F4FD644AC5F89C21232008F0F4
:1012C800D6FF752001210BAA0EF07CFEDDF818C0B0
:1012D800002866D05D4ACBF894215D4ACBF8982166
:1012E80043228BF8902160460CAA01210EF06AFE79
:1012F8009DF8302002F07E028DF8302040B1682A37
:1013080006D101228BF88C211D228BF8902148E010
:101318009DF82C3003F07E03682B8DF82C303BD1E0
:101328000223062085F88C311AAAD5F89431494D44
:10133800014698479DF86B309DF86D2003F0010336
:101348005B0002F0010243EA82029DF8693003F073
:101358000103134312D05AB2012A01D1002302E03B
:10136800022A03D1012385F88D311AE003F0030323
:10137800032BF7D0032008F08FFF12E0D5F8943143
:101388000C2001210EAA98479DF8383013F00F035E
:10139800F0D0042BE6D1E1E7702B04BF042385F8D5
:1013A8008C312D4900230B702A4B93F88C21022A8B
:1013B8009B4612D1234B2948186029485860294870
:1013C800D8602948186104230B702849284D0868FB
:1013D8002A7040F001030B6003E0012008F05CFF75
:1013E8007BE10A2F3A464FF0010328BF00229340C1
:1013F80040F2B2371F40002F42D113F04D0F3FD0BB
:101408000F4B1C4A1A601C4A5A609BF88D21002A0F
:101418000CBF6F226E221A72184B04221A70032313
:1014280018436B70086031E0000100508C2B0020DD
:101438009C3800201C2D0020404B4C006C220020C2
:10144800DC3800206C2300200C800108CDFF000848
:10145800FB000108F80300203609002045030108B5
:101468005DFE000849FE000890C1793DD83800208B
:1014780085030020A9030108A5FE0008BB39002048
:10148800012A4FF00007ACD86B4B1F70042C6BD8A7
:10149800012707FA04F313F016056CD113F0090FAE
:1014A80060D00A2008F0E3FE7720A0213A460EAB70
:1014B80006F0C6FD00285ED077201E213A4606F0C9
:1014C8003BFE4FF42F6008F0C7FEA5F16001002431
:1014D800C9B202221AAB77208DF868408DF86940AE
:1014E80006F0AEFD9DF869309DF8682043EA0222B7
:1014F800524B03F5D0716A520235102DE5D1B3F87D
:10150800AE2102F00F0502F47F42A3F8AE210120BC
:1015180023462146494F21F001043C44B4F8A04138
:10152800002C18BF0020CF0703D5E4B2634008247D
:1015380002E083EA1423FAE71F0448BF83F4C05388
:10154800013C4FEA4303F7D101311029E2D13B496D
:101558002A43A1F8AE2170B9C3F303339D4200F0CA
:10156800B18608E0012C06D0354B364A9C701368CA
:1015780043F004031360334C23689A0702D5324BB7
:101588001B689847314AB9F1000F0DD0B8F1000F28
:1015980006F1FF36F6B20CBF7D234FF47A738BF851
:1015A800B06106FB033303E0244B83F8B091059B3D
:1015B8001360274B40461B689847049F254E00231D
:1015C800022F337004D0032F1CD0002F40F08C86DC
:1015D8002EAB002203F8502D1F4ACBF8B4211E2051
:1015E8000A21012206F02CFD60B19DF86830482BD5
:1015F80008D11A4B1A4A1A601A4A5A6004233370DF
:10160800022335E02EAB002503F8505D0C20294657
:10161800012206F015FD58B19DF86830482B40F0BE
:1016280021870E4B104A1A60104A5A6003231FE0A4
:10163800054600F017BF00BFBB390020F8030020A3
:1016480085030020D8380020DC380020A0220020A4
:101658006C230020BA39002024800108603500205E
:1016680031010108EDFE000877000108E3FF0008DA
:10167800BB4AD370236843F008032360B94B93F83F
:1016880058210AB1B8490A7093F859210AB1B749E3
:101698000A7093F85A3103B133702368B44913F0D0
:1016A800080F00F027860FFA8AF0642290FBF2F305
:1016B80002FB130212B207EE902AB8EEE77A07EEA1
:1016C800903ADFEDAC6AF8EEE77AE7EE267AB2EE0A
:1016D800047A67EE877AC1ED007AA74A137843F057
:1016E80002031370A54B08229A610A24A34DAB8A02
:1016F8009BB283F00803AB82192008F0B8FD0120E3
:101708000DF0C6FA192008F0B2FD013C00200DF0DA
:10171800BFFA14F0FF04E9D10823994CAB612368A0
:101728001F0705D5974B1B689847974B01221A70DE
:10173800964B9FED978A1B68964D1B7B00EE103ADF
:10174800B8EEC00A20EE080A11F06CFC924B9FED2F
:10175800937A83ED000A924BD3ED047A914B67EEAE
:10176800887AC3ED007A904B1B8807EE903AF8EE22
:10177800E77A8E4BC7EE277A9FED8D7AC7EE877A88
:10178800C3ED007A0DF098FC2846FF211B2216F0C5
:1017980086FB00222A702268864B012112F0020F74
:1017A80018BF697019701FBF032119700221A97031
:1017B800560748BF1978284641BF4D1C1D700325A0
:1017C800455412F00A0F0CD01A7804218154511C88
:1017D800C9B205254554D11C0232D2B2197006216E
:1017E8008154754F39688D0641BF1A78551C1D7094
:1017F800072548BF85540A0608D51A78092585544F
:10180800951C0132D2B21D700A258554554E757942
:1018180005F0EF02082A01D00E2D08D11A7802F13E
:10182800010E83F800E04FF00B0E00F802E01A7882
:1018380011F4803F4FF00C0C00F802C002F1010EC9
:101848001CBFDFF870C102325FFA8EFE83F800E039
:101858001FBF8CF800204F4A4FF00E0C02F80EC044
:101868004A0741BF1A7802F1010E83F800E04FF0F1
:10187800100E48BF00F802E01A7802F1010E5FFA74
:101888008EFE4FF0120C11F4806F83F800E000F820
:1018980002C00ED096F828C2BCF1000F09D0DFF8BC
:1018A80014C102328CF800203A4A4FF0130C02F8A7
:1018B8000EC08A0541BF1A7802F1010E83F800E0D4
:1018C8004FF0150E48BF00F802E0182D13D11A7812
:1018D8004FF0160E00F802E002F1010E5FFA8EFEDC
:1018E8004FF0170C00F80EC002F1030E0232D2B20C
:1018F80083F800E085540D0341BF1A78551C1D700C
:10190800192548BF8554CA0548BF1A782B4D41BFD1
:10191800511C19701A2181541A78511C19701423FA
:10192800835400219822264816F0B9FA0FF049F896
:10193800244B25491960254BB6F8522124482960C3
:1019480024491A800023244AD0F800E00B70B6F826
:10195800A011138093701FFA81FC0EF185023DE0FF
:10196800850300208C2B002036090020BB3900207D
:10197800400A00208988883C483700200004004835
:10198800D83800206035002080350020080A002063
:1019980035FA8E3C291F0020440A00200AE81C4121
:1019A8006C230020300A0020040000203435002079
:1019B80000401C46281F0020F0330020E41E0020B1
:1019C800F42A0020541200201C2D00205812002058
:1019D8006C2200208E110020F41E00208046DFF8C3
:1019E8003C93AF48D9F80050DFF834A320F813C06F
:1019F80005F596754AF823500133122BCDF810904F
:101A0800EDD13D68EB0458BFB6F8A6C1A0F806C0F2
:101A18000EF1D50E1378B3B9937892F803C06345E5
:101A280011D20BB1013B01E00CF1010392F801C0A6
:101A380003EB830303EB830303F561730CF1040CDD
:101A48009BB220F81C3004327245E3D12B0740F1D9
:101A5800D38096F89831072B00F2C880DFE803F0AE
:101A680004070E39527272AC45F2F05201E042F6A8
:101A7800F8228C4B1A800FF050F8B6E0894B42F6EA
:101A8800F8221A8009010A2391FBF3F10023A1F53A
:101A9800B061854A42F823100133122BF9D1834AE9
:101AA80083491160834A4020137008F053FA0028D4
:101AB80000F09C8096F89A3190F90000002B14BF32
:101AC8000723062301228DE80C0040217A4A7B4B2C
:101AD80086E0744B42F6F8221A80744B784A1A60F2
:101AE800744B102240201A7008F034FA00287DD078
:101AF80001234FF0000990F90000724A8DE80802AE
:101B080040216BE0674B42F6F8221A80674B6E4A19
:101B18001A60684B082240201A7008F01BFA002847
:101B280064D001234FF0000C90F90000674A8DE85B
:101B3800081040214FF4E13308F0E2F8644BC3F891
:101B4800B8014FE0574A634D634842F6F8211180C7
:101B580058490C22062B0A700FD0604900232B70BD
:101B68000B7003705E4B1B2119705E4B1A705E4B35
:101B780005221A704FF4E1350CE000210170574836
:101B8800297001705649594D2120087055490A702D
:101B9800554A1370454B564A1A60402008F0DAF946
:101BA80020B301234FF0000E90F90000514A8DE850
:101BB800084040212B4613E03C4B4F4A1A603D4BEE
:101BC800082240201A7008F0C5F978B101230025D1
:101BD80090F90000494A8DE8280040214FF4E1338C
:101BE80008F08EF8003018BF012028B9082011F03D
:101BF80041FA2E4B424A1A603B682E4A13F4804F32
:101C08001FBF1221117029493E4818BF086042F2CF
:101C18000101194003F0010003F4005581B1214985
:101C280044F6206CA1F800C025B1082111701F49A5
:101C3800354D0D6020B10C2111701C4933480860E6
:101C480011781806A1F10401517040F1A4804FF0F9
:101C5800000ADFF8D0902E4B2E48CBF8BC31514605
:101C68001522059389F801A0C9F804A0C9F808A0AD
:101C780016F015F9059B284D053B50462B600BF0D7
:101C8800C3F8049B02201B68C9F80C3008F062F9FD
:101C9800AE46002848D1802011F0ECF973E000BF6F
:101CA800D02A00206C0A0020C41C002060000020FC
:101CB80091A40008A033002069A70008A0860100AD
:101CC8007DA40008BDA6000865A4000871A6000848
:101CD800F8030020521C0020791D0020781D0020E8
:101CE8007A1D0020511C00207B1D002090D003008D
:101CF80079A3000845A500086DA30008F9A4000809
:101D0800F5A40008C5A40008E5A40008D5A40008A7
:101D18008A2D0020B8050020A4350020F01E0020E0
:101D2800D81100208435002090F805C099F80130BA
:101D3800C54A0C2101FB03214978614504D00133D0
:101D4800DBB2042BF4D9002389F80130DEF8003027
:101D580090F900001B78002B99F801304FF00C0E19
:101D68000EFB032214BF03210121537800910022A6
:101D78000192022107F0C4FFB44B186000288AD0F2
:101D880001200BF041F8D8F80000B14B00F5CB72F8
:101D98001A600DF0DDFB3B6813F4007F0DF1680855
:101DA8006FD0DFF804A3039BCAF80030A94B5A6927
:101DB80042F480225A619A6942F001029A61039BB7
:101DC8001B88ADF8303002238DF83330039B4FF079
:101DD800010958688DF832900CA906F017F8DAF85E
:101DE800003000251A89D868ADF830200CA98DF884
:101DF800325006F00BF8DAF800304846197D0FF03B
:101E080013F8DAF8003018690FF0F6F8DAF800304D
:101E18001B691A93404610238DF86D308DF86C506D
:101E28008DF86E900EF09AFCDAF800305B7D8DF834
:101E380038300EA803238DF839308DF83A508DF8D4
:101E48003B900EF06DFC049B834A1B683C3B13607F
:101E5800236843F0100323604FF4C873ABF8D631FE
:101E68007E4BC8221A80E123ABF8D8317C4B7D4ADF
:101E78001A607D4B40F271121A807C4B4FF0FF3292
:101E88001A607B4A7B4B13607B4A7C4D803313601E
:101E98003B680024D9032C7040F1B28010F004FC98
:101EA800DFF808C2DFF8ACA1CDF814C040F22A333D
:101EB8004FF0010960461A46214685F800900493C0
:101EC80015F0EDFF6E4A6F491160DAF814206E4D77
:101ED8004FF0904042F40032CAF81420426A22F0CF
:101EE8000F024262426A032142F0060242624FF444
:101EF800807302228DF835100CA90C938DF83420CC
:101F080003928DF836408DF837900FF081F8DAF8A3
:101F18001810039A41F40061CAF81810298821F4AE
:101F28005C710904090C29801D21E96228462A856B
:101F38000EA92C866022C5F814900E92ADF83E408A
:101F48001094ADF84440ADF84640ADF84840ADF8BF
:101F58004A40ADF83C900EF02AFFAA6942F0080208
:101F6800AA616A6C42F400426A64DAF8142042EA10
:101F78000902CAF81420AAF6E47A50460EF0C3FF04
:101F880040460EF095FF049BADF8743080233F4A1D
:101F98001F934FF480731A92DDF814C02093102217
:101FA8004FF40053504641462393CDF86CC01C9221
:101FB8001E942194229424940EF087FFEB6843F436
:101FC8000073EB60DAF8003043F00203CAF800301F
:101FD8000BA80C238DF82C308DF82D908DF82E4001
:101FE8008DF82F900EF09CFB294B1A68294B43F86B
:101FF80024200134202CF7D10EF00AFA0EF008FA4A
:102008003B685A0540F18A80234BDBF804551D6074
:10201800042007F09FFF0421CBF8080507F076FF9E
:102028001E4B8BF80C0508201D6007F093FF1C4B16
:102038001C4C1860082107F069FF00218BF80D057A
:102048002C22204634E000BF049001089838002074
:10205800AC1200200010024058350020183500202E
:10206800103500205E836C3F203500201435002099
:1020780074220020C42D002070220020FC1A0020A9
:10208800D41B002061FC0008002C0140342C0140C6
:102098003C800108FE1A00202C1A00207C1A00201F
:1020A800C81A00204C1A00205C350020D2050020F8
:1020B80015F0F5FE8E2363704FF07C0AE0234FF095
:1020C8007D09E37084F800A084F82B90C54C2C227D
:1020D8000021204615F0E3FE8A2363702020A02308
:1020E800E37084F800A084F82B90CBF8105507F023
:1020F80031FF2021CBF8140507F008FF8BF81805ED
:102108001020CBF81C5507F025FF1021CBF820052F
:1021180007F0FCFE8BF8240512F096FDB24A1388EE
:1021280023F040031B041B0C1380138823F038038F
:102138001B041B0C138013889BB243F040031380CD
:1021480000249F2332208DF838308DF839408DF8DF
:102158003A408DF83B4008F08AF88DF86940A34C66
:102168004FF480550422258540460EA90EF0B8FA92
:10217800A5619DF86A209DF86930120242EA03427F
:102188009DF86B301A439A4B9A429A4B17D008D84D
:1021980099498A420CD001F51A4102318A4209D084
:1021A8001CE096498A4205D001318A4207D015E0E1
:1021B800202200E080221A804FF4807202E04FF45F
:1021C80080721A805A809A88198812029A604A4343
:1021D800DA608B4A012182F8251504E000221A8072
:1021E8005A809A60DA60DC6814B3E40AA1464FF0BA
:1021F800000AA24509DA0AEB04056D10E802414617
:1022080010220EF017FA0F2807DC0DF0F3FB7C4BB9
:102218004FEAC922C3F828250AE0002358F82320EA
:1022280001326BD10133042BF8D1A9462C46E0E7E3
:102238003B68744A13F4002118BF012111707279A8
:10224800052A02BF704A4FF4C87111806F4A4FF4D3
:102258007A7111806E4AC82111806E490A7842F05D
:1022680008020A706C490A7822F002020A7040F6E5
:1022780002021A406AB1694A69491160694A032130
:102288001170694A01211170684900220A80684961
:102298000A809B0341BF674B04221A71DA7844BF56
:1022A80042F00102DA70B3683B60634B01221A7096
:1022B800624A137863F07F0313702FB0BDEC068B6E
:1022C800BDE8F08F5E4B42F210721A805A805D4A68
:1022D8005A605D4A9A605D4ADA605D4A1A615D4AF1
:1022E8005A610324FFF740B9012F7FF6C7A91F469B
:1022F800FFF764B900230B60FFF7EFB905F1010A96
:10230800254693E713B208EE103ABBF95E31DFEDCC
:10231800527A524909EE103ABBF96031B8EEC88AD0
:1023280008EE903A28EE278AB8EEC99AF8EEE88ABD
:102338000020B0EE480A29EE279A68EEA78A0870AE
:1023480010F070FEF0EE409AB0EE480A10F008FE69
:10235800B0EE408AB0EE490A10F064FEB0EE40AA32
:10236800B0EE490A10F0FCFDF0EE40AAB0EE680AA3
:1023780010F058FEB0EE409AB0EE680A10F0F0FD8A
:1023880060EE296A68EE097AF0EE665AE7EEAA5A14
:10239800334A29EE296A28EE007AC2ED035AF0EE94
:1023A800465A2AEE400AE7EE6A5AE6EEAA7AA6EEFE
:1023B8006A7A29EE0A9A82ED010A28EE4A8A2AEEFA
:1023C800290A82ED009AC2ED02AAC2ED045A82EDF2
:1023D800058A82ED067AC2ED077A82ED080AFEF7D1
:1023E80019BF00BF801A00200038004000040048D0
:1023F80018BA200040000020152020001740EF00E8
:10240800F80300207110002066120020AC3900206B
:10241800B2390020341A0020B8390020301E0020BC
:102428000E2D0020D6380020890300200C3900200A
:102438000E3900209C380020C80F002048370020A3
:10244800F8330020F1000108BDFF0008E70001088B
:10245800ADFF000889FC000835FA8E3C3A000020E0
:102468000C1E0020012F7FF609A900273570FFF701
:10247800AFB800BF2DE9F04FA84DA94C2B780E2B13
:102488009EBFA84A342101FB03232DED0E8B98BF74
:102498009E6AA54B93B01A7C069388BF002692B912
:1024A8002B780E2B13D9002016E098470028F7D177
:1024B80007F0B6FE9D4B1B68F31A18449C4B1B682B
:1024C80064339842ECD2E368002BEED1F0E7954AEA
:1024D800342101FB0323986A964BDFED978A974EC8
:1024E800974D308081B207EE901AF8EE676A19802E
:1024F80026EEA87A934B944883ED007A904BD3ED5F
:10250800017AF5EE407AF1EE10FA04BF8F4A5A606C
:1025180093ED016AD3ED007A37EE066A76EEE76A44
:1025280087EE067A9A46E7EE267AC3ED007AFCEE45
:10253800E77ACDED057ABDF814209A818A1A72805F
:102548006268814C904748B9814A824D116811F000
:10255800020F904640F0068100F06FBC20462146ED
:10256800AA7B08F0D5FA95ED048AB5EE408AF1EE1B
:1025780010FA12D1784EDFF8E8813288002A00F08C
:10258800AD80DAF888201378A8F1480708EE103AE9
:10259800A8F13C054FF0000963E02A7DAAB9AA61B9
:1025A800DAF81850664E022D0DDC06F11C022420C4
:1025B80000FB05205E4AB0EE480A1168013510F0AC
:1025C800B6F9B561ECE7012232759AF81420002AB1
:1025D800D0D05B4A00219161DAF81850584E022D8C
:1025E800C8DC34F9153000EE103A06F11C0224203C
:1025F80000FB0520B8EEC00A10F070F913F0CCFF0C
:1026080024F815000135B561E6E7D5ED006A07EE57
:10261800102A37EEE66AB8EEC77A86EE077A36EE03
:10262800877AD5ED026A85ED017A77EEC77A85ED6E
:10263800007AE6EE276AF0EE667AC5ED036AC5ED24
:10264800026A0022012824F80B2028F80B2026D043
:1026580009F10109B9F1030F07F1040705F11405A0
:1026680048D03088B0F57A7F02BF00223A602A61EC
:10267800396834F91920114407EE902A2A6939601B
:102688000132012A4FEA490BF8EEE77A2A61BCD1F8
:102698000022C5ED017AC5ED007AAA60D1E72A6962
:1026A800012AC3BF02F1FF3300EE103AD5ED037AD9
:1026B8009FED2A0AC4BFB8EEC00A87EE800A14F05C
:1026C80081F918EE103A5BB1F8EEC87AB4EEE70A71
:1026D800F1EE10FA04DD4FF47A723280002211E034
:1026E8003A684FF47A7102F5FA7292FBF1F228F81F
:1026F8000B20ADE73088012801D107F00FFD3288A3
:10270800013AEAE734F8121038F81200091A24F8E6
:1027180012100132032AF5D116E700BF8403002006
:102728006C230020740000208C2B0020F83400203B
:10273800A0220020B4390020BD378635681000205B
:10274800280900208C2300208A22002083F9223EB9
:10275800D838002050390020AC3900200000000093
:10276800FC090020B44A1278002A00F0668307F0BA
:1027780057FDDAF8DC20B149CAF8DC00831A09EE03
:10278800103ADAF8E03005931E7800225700DFF897
:10279800E0929EB335F91230D1ED017A06EE903A07
:1027A800B8EE497AF5EE407AF1EE10FAF8EEE66AFC
:1027B80027EE287A0DD107EE906A9FEDA16AF8EE10
:1027C800E77A27EE866AF7EE007AC7EE867AC1EDD9
:1027D800017A91ED016AD1ED007A37EE066A76EE5C
:1027E800E76A87EE067AE7EE267AC1ED007AFDEE13
:1027F800E77A17EE900A29F8070003E035F8120087
:1028080029F812000132032A01F10C01BED1B9F8EE
:102818000260B9F80050B9F8047016FB06F215FB0F
:10282800052217FB072264215143864A1288524326
:1028380091FBF2F2D8F80010A2F1520308070993AD
:1028480009D5814AB2F9000028B1B2F9020010B1E5
:10285800B2F904207ABB7D4A107800F010027AB3EE
:1028680011F020022CD000F0020149B3784A127806
:10287800042A25D9774A1288B2F5967F20D3764A5A
:10288800B2F90430754A07EE903A1388B8EEE77A41
:1028980007EE903AF8EEE77AB2EE048A87EE888A75
:1028A8004FF0010B4FF0000877EE487A9FED6C8AE5
:1028B80027EE888A09E04FF0000B4FF0010802E08C
:1028C8004FF0000BD8469FED678AB4F900309AEDB7
:1028D800425A5D48F8EE497A07EE103AB4F90230E8
:1028E80067EEA88A07EE903AF8EEE77AB4F9043072
:1028F8004488B8EEC77A27EE85BA27EE05AA06EE11
:10290800103A2BEE0B0AB8EEC66AAAEE0A0A03883A
:10291800079366EE05AA83880893AAEEAA0A14F01C
:1029280051F8B0EE40CABBF1000F22D0DFED4E7A6D
:10293800B4EEE78AF1EE10FA04DDDFED417A38EE05
:10294800678AF3E7DFED497AB4EEE78AF1EE10FA29
:1029580004D5DFED3B7A38EE278AF3E7B6EE000AB6
:1029680028EE000A10F0FCFADFED3EBA70EE2BBA42
:1029780001E0DFED3CBADFED3BCADFF8F8B0F7EE77
:10298800009AB8F1000F7BD0BDF91C30DFED3A7A20
:1029980007EE103A23B208EE103ABDF92030F8EEEF
:1029A800C7DA00EE103AB8EEC88AB8EEC0DA2DEEF3
:1029B800AD0AA8EE080AADEE0D0AB4EEE70AF1EE8C
:1029C80010FA5DDD13F0FEFF89EE800ADBED017A77
:1029D800DBED006A28EE008A2DEE807A68EE277A11
:1029E8002DEE000AE6EE877ADBED026AE6EE807AE3
:1029F800DBED046A28EE268ADBED036AA6EE878AF9
:102A08009BED057AA7EE008AB0EE6CDA28EE080A8C
:102A1800A7EEA70A13F0D6FFDBED067A20EE480AE8
:102A2800A7EE80DADBED077AE7EE80CADBED087AFD
:102A3800E7EE80BA26E000BF803900200C0A0020AB
:102A4800DB0FC9400400002068350020341A00203C
:102A58003A1A0020361A0020842200202410002070
:102A680035FA8E3C00000000DB0F4940DB0F49C0FF
:102A7800161A0020B82500200AD7233CC2B8B23E57
:102A8800B0EE6CDA099B262B3DD82DB207EE905A92
:102A980036B2B8EEE78A07EE906A28EE080AF8EE32
:102AA800E7DA3FB207EE907AADEEAD0AB8EEE7EAA4
:102AB8005FED0F7AAEEE0E0AB4EEE70AF1EE10FA09
:102AC80021DD13F07FFF89EE800ADBED076A9BEDBD
:102AD800087A2EEE00EA6DEE80DA66EECE7A28EEFF
:102AE800008AEDEE877A27EE487A3DEE27DADBEDAD
:102AF800067AAEEE277A67EEED7A7CEE87CAE8EEC4
:102B0800267A7BEEA7BA059BD3ED017AF5EEC07A5B
:102B1800F1EE10FA4FF000011FDD1FED287AB4EE38
:102B2800C7CAF1EE10FA1ED567EE8D6A9AED437AA0
:102B3800A6EEA87A67EEAC6A8AED437A9AED447AF3
:102B4800A6EEA87A67EEAB7A8AED447A9AED457AD2
:102B5800A7EEA87A8AED457A05E0CAF80C11CAF8FA
:102B68001011CAF81411D34C059B2178D3ED027AC1
:102B780049070CD4D049086844F61F618842B7EE6B
:102B8800005AB2EE047A98BFB0EE475A01E0B7EEA9
:102B9800005A27EE855ADAED456A9AED437ADAED5E
:102BA800447AC64EDFF84C8396ED004AC44FD8ED00
:102BB800003AC44D9FEDC48AD5ED004AE5EE2B6A74
:102BC800A5EE0D7AE5EE2C7A3AEEA66AF6EE006AE4
:102BD80068EEA66A7BEE277A3AEE077A67EEA65A7F
:102BE80027EE267A66EE266A25EEC45A24EE260AD1
:102BF800D7ED007AA3EE870AA7EEC75AB1EE646A4A
:102C0800A6EE265AA6EE250A26EEE76A37EE800AD1
:102C1800A3EEA56A67EEA57A33EE855AA4EE876A15
:102C2800E3EEA67A87ED000A20EE000A34EE066A83
:102C3800A5EE050AE4EE477AA6EE060A74EEA77A30
:102C480088ED005AA7EEA70A86ED006AC5ED007A5E
:102C580013F0B8FE89EE800AD8ED007AD5ED009A17
:102C680067EE807AC8ED007AD7ED007A67EE807A51
:102C7800C7ED007AD6ED007A67EE807A29EE800AF1
:102C8800C6ED007A85ED000A0CF016FADBED080AAD
:102C98009BED070A8D4D10F0F1F820EE080A13F0AD
:102CA8007BFC9BED060A2880B1EE400A10F0B3F8D1
:102CB800DFED877A37EEC00A20EE080A13F06CFCC5
:102CC800DBED000A9BED030A688010F0D7F8DAED17
:102CD800467AE0EE487AB0EE670A13F05DFCB9F97F
:102CE8000030DBED085ADAED477A9BED010A9BEDDF
:102CF800065A06EE103AB9F9023007EE103AB8EE65
:102D0800C77AB8EEC66AF4EEE75AB9F90430DBEDD3
:102D1800007A27EE000A06EE903AA7EE860A81B2FC
:102D28000A04F8EEE66ADBED027A58BFA980A7EE3E
:102D3800A60A48BF00F561606649DBED077A059B86
:102D480048BFA88067EE277A08785A78E5EE067AB1
:102D5800F1EE10FAE5EEA67ACCBF40F0080020F0BC
:102D68000800DBED045A087027EE257ADBED035ADC
:102D7800A5EE867A012A9BED056AA6EE267AF1EE83
:102D8800479A1AD1227853070FD4DAF82021402124
:102D980092FBF1F1531A07EE103AB8EEC77A37EE04
:102DA800277ABDEEC77A8AED487ADAF820214021E1
:102DB80092FBF1F207EE102A03E0474A138807EE68
:102DC800103AB8EEC77A9AED498A444C77EEC77A3A
:102DD8009AED4A7A38EE877A77EEC87AC8EE878A0B
:102DE800A8EEA78A8AED498A13F0D6FBDAF82C51A7
:102DF800297810F001F82368B0EE690A18442060B9
:102E080013F0CAFB29780FF0F7FF6368B0EE480AA1
:102E18001844606013F0C0FB69780FF0EDFFA368F9
:102E28002F4A184419EE101A1368A060194411604B
:102E38002C4A13680133136003E000232B806B8056
:102E4800AB80294BB3F90610284BD3F800E0BEF845
:102E58000A2091420FDBB1F5FA6F9EF80750BDBF0B
:102E68008B1A6B43A2F5FA65C5F16405BCBF93FBE9
:102E7800F5F5643500E06425069BB3F8A0C11C4B4A
:102E88001B680593069B059E93F962319BB20693D6
:102E98000022154B33F91280CCEB080303F2F3142C
:102EA80040F2E63084424FEA420925D8002BB8BFE9
:102EB8005B4223E0B8390020F01E0020B025002036
:102EC800AC250020B42500204C3D0F44842200206E
:102ED800DB0FC93F341A00200400002028350020E9
:102EE8009839002024350020D02A0020B838002046
:102EF8006C220020500000204FF4FA73022A059C2F
:102F08004FF064002AD094F81D411CB1A342CCBFF5
:102F18001B1B0023B14C93FBF0F76FF0630B34F8E5
:102F280017A00BFB073B013734F917400FFA8AF754
:102F3800E41BAB4F04FB0BF494FBF0F4544427F868
:102F480009400EEB020424796343A64C93FBF4F387
:102F580064339BB26B4393FBF0F02CE094F81E4172
:102F68001CB1A342CCBF1B1B00239F4C93FBF0F06A
:102F78006FF0630A0AFB003B04EB400704EB4000D8
:102F8800B7F93071B0F93201C01B00FB0BFBBDF87B
:102F980018009BFBFAFBC7EB0B0717FB00F79048E1
:102FA80087809EF80600002BB8BF5B4243438D48DC
:102FB80093FBF0F0643073788C4C6427434393FBA5
:102FC800F7F3A3548A4CF37A434393FBF7F3A354E0
:102FD800737D834C5843874B90FBF7F0022A985433
:102FE800854B0DD1E0459F700DDB844DB5F8A221CE
:102FF800914214DBB1F5FA6FA8BF4FF4FA610FE004
:10300800E0459D5404DA34F809305B4224F809306D
:103018000132032A06F101067FF43BAFE5E71146CA
:10302800DFF824E26E4E891A4FF47A736FF063006A
:103038005943C2F5FA626423B1FBF2F191FBF3F252
:103048003EF8127000FB0211013238B23EF912202C
:10305800121A514391FBF3F33B44E380684B1B88FE
:103068005F0639D5674BDFED687AB3F904300A2279
:1030780093FBF2F3654A12889B1A1BB208EE103ACA
:10308800B8EEC88A28EE278AB0EE480A0FF0CAFFC1
:10309800F0EE408AB0EE480A0FF062FFB6F902304F
:1030A80006EE903AB6F90030F8EEE66A07EE903A86
:1030B80020EE667AF8EEE77AA7EEA87A67EE807ACD
:1030C800BDEEC77AE6EEA87A17EE103AFDEEE77A7B
:1030D800338017EE903A73804D4B1A78500703D51A
:1030E8004C4B08221A853CE04B490968C9075CBF6C
:1030F80042F001021A70494A4949127817075EBF1F
:103108001A7822F001021A70464A126812F0040F67
:1031180002D04548008870B94448008808B196072D
:1031280009D4434A1288003218BF01221AB941480B
:103138000088632806D902220A701A7822F0010250
:103148001A7005E01B78D80756BF02230A700B7067
:1031580007F066F8384B1B68C01A002801DB07F037
:1031680021FE364B9B680BB13548984795F89F313F
:103178001D4E002B00F08C80B389B6F84401B0FBDB
:10318800F3F0304B471C1B78BFB2A6F84671002BF2
:103198005CD0B6F848A10023DFF84CE034F813807F
:1031A8000EF5A97C0EF5A5793CF8132039F8131013
:1031B8002CF81380C2EB080B11FB0AF13AB291FB11
:1031C800F2F25A4429F813200133042BE4D11D4BA1
:1031D800AEF8480100221A703DE000BFB61B00207F
:1031E8007C2200200CFEFFFF28090020B0230020CD
:1031F800660A0020C8230020902200208C2B002083
:10320800201F00208422002035FA8E3CA6120020C0
:10321800B839002000040048241F0020341A002078
:10322800181F0020D8380020B2390020661200206C
:10323800AC390020D43800201C1F00206C2300204B
:103248006A0A00203C1300209E1B0020B6F8483173
:10325800013BA6F84831994AB2F8480103B2002B5D
:103268004FF0000312DDB2F94671954931F8132089
:10327800083112FB00F231F8131092FBF7F28A1AA8
:1032880024F813200133042BEFD101E0A2F84831D0
:103298008C4B8D4FDFF8789201221A703A6812F041
:1032A800080F44D0A088894900F10E039BB21C2B5B
:1032B800874BB3F9043036D8DFF81CE2BEF800E0DB
:1032C8001EF0040F2FD009884FF00A0E93FBFEF36F
:1032D8005B1A9BB21FFA83FE0FFA8EF1B331BCBFA3
:1032E80003F5B4731FFA83FE0FFA8EF3B32BC4BF32
:1032F800AEF5B4731FFA83FE764B95F862111B780E
:103308001B0714D549B249421EFB01F3D9F8001036
:10331800497A9BB213FB01F36FF01D0193FBF1F3A4
:103328001844A08003E00A2093FBF0F30B8012F00E
:10333800140FDFF8888172D0674B1B8803F402737F
:10334800002B6CD0634B1B7803F0100303F0FF0EC7
:103358004BB1624B95F9F821B3F90010638801FB72
:10336800023363805BE0D8F85C315D4AD9785D4808
:103378009B7829B3B0F90010B2F90600421A002A66
:10338800B8BF52429A420EDD574A8842C2F800E05E
:103398004FF0010288F86021C8BF5B42E2889BB207
:1033A8001344E3803BE098F860312BB14F4B88F829
:1033B80060E11A684E4B1A60484B1B680B4423E0C7
:1033C800B0F90000B2F90620121A82EAE27EAEEBEA
:1033D800E27E9E450ADD022392FBF3F2454B1A601A
:1033E800454A0123137088F860310AE098F8603183
:1033F8003BB13E4B88F860111A683D4B1A603E4B52
:103408001970364B1B680344D8F864110A88498838
:10341800934203DB8B42A8BF0B461A46E280374B28
:103428001B78ABB12E4BB3F90620B5F8A2319A42FE
:103438000EDC334B5B79012B01D0192B02D195F8A7
:10344800F2212AB90E2B03D0082B1CBF0023A3801E
:10345800D9F8003093F824A1BAF1000F5ED01E4BC2
:103468001B889A075AD0274BDFED277A93ED080A75
:10347800B4EEE70AF1EE10FA4CD90FF0CCFCD6ED19
:103488005A7A20EE270A13F087F8B0F5617FA8BFB3
:103498004FF4617007EE900AB8EEE70ADFED1B7A89
:1034A80080EE270A0FF05CFD07EE90AAF8EEE77AA7
:1034B80027EE800A13F070F880B22CE0280900206B
:1034C800720A00203D130020D8380020A4120020E2
:1034D80084220020341A0020201F002050350020AC
:1034E800D02A00203E1300204C350020EC1A002082
:1034F800443500209C39002054350020020000206B
:103508008C2B0020B82500208FC2753CEFB6B04444
:103518006C2200200020E3881844E0803B689B066A
:1035280040F1A980C54B1B8803F03003002B00F045
:10353800A280C34B1B78DF0740F19D80C14BDFEDB4
:10354800C27AB3F90430DFF83CA30A2293FBF2F302
:1035580008EE103AB8EEC88A28EE278AB0EE480A74
:103568000FF0FEFCF0EE408AB0EE480A0FF05AFD6C
:10357800B64BB7491B6893F803C0B0EE409AB2EE59
:10358800048ABCF1000F52D0DFF8FCB2B1F9020096
:10359800BBF80270CDF818C03BB2C01A05910BF009
:1035A8007BFFDDF818C00599CCF1000290425B461C
:1035B80003DB6045A8BF604600E0104638441F881A
:1035C80007921FFA80FBB1F90000A3F802B039B2E4
:1035D800401A0593CDF818C00BF05EFF079A059BBB
:1035E800904205DBDDF818C060450246A8BF624678
:1035F8001744BFB21F803FB207EE107A0FFA8BFB59
:10360800B8EEC70A07EE90BA28EEC07AF8EEE77A65
:1036180020EE090AA7EE897AA7EEA80A87EE087AAB
:10362800BDEEC77A17EE103AAAF800301BE0B1F9E0
:10363800023007EE103AB1F9003000EE103AB8EE59
:10364800C00AB8EEC77A68EEC07A20EE090AE7EE3B
:10365800097AA7EE280AC7EE887AFDEEE77A17EE10
:10366800903AAAF8003080EE080AFDEEC07A17EE0C
:10367800903AAAF80230774BD9F80000B5F87421CF
:103688000093754B1F68754B196800F16403B847C0
:10369800734B74481B78032B18D9D8F86C21B2F8EF
:1036A80002E0BEF5FA7F11D2B4F90470B0F904C093
:1036B800002FB8BF7F42CEF10001CA1B944504DB3E
:1036C8000EEB07026245A8BF62468280E788D8F8F9
:1036D8006C916549B0F802E0B0F800C0B0F904A0F8
:1036E8000020984201F1100133D299F9012051EDDF
:1036F800045ADFF880B152420AFB02F207EE902A20
:103708000FFA8CF206EE902A3AB206EE102A0FFA59
:103718008EF2B8EEE77A07EE902AF8EEE77AB8EE7E
:10372800C66A67EEA57A51ED065AE6EE257AF8EEF6
:10373800E66A11ED056AE6EE867A51ED036AE7EE70
:10374800267AFDEEE77A17EE902A2BF81020013042
:10375800C7E7464A117801F0040101F0FF02002989
:1037680000F0CB80424A4348D27806920288012171
:10377800994217B207D230F911209742B8BF1746BD
:10378800BAB20131F4E73C49DFF800E10968D8F83A
:103798006CA14888D8F83082DEF800E08742C6BFBE
:1037A800101A82B200220592344A126802F4805735
:1037B80002F0100207970892314F2E4AB7F90670A7
:1037C80002EB43030993099B9A4200F08D8013880A
:1037D80005981B1A07989BB222F8023B002857D07D
:1037E8009AF800C0BCF1000F0AD1B8F81090BEF8E2
:1037F80006C0CCEB090B5F4502DDCC44674515DB01
:10380800B8F810C06745CBBFBEF802C0B1F804C015
:10381800B1F80290BEF800901BB2634503DB4B453C
:10382800A8BF4B469C4622F802CCCCE74F45CCBFFC
:10383800BEF80230BEF8003053E000BF201F002061
:10384800341A00208422002035FA8E3CAC12002065
:10385800381300201C2D002080030020B8380020D9
:10386800CB230020C8220020A00A0020B83900205D
:10387800F41E0020CC23002030250020F033002047
:10388800D02A0020AE390020341300202C25002037
:103898000698B1F802C01BB250B1B1F804904B457C
:1038A80003DB6345A8BF6346994622F8029C8AE772
:1038B800B1F800904B4503DB6345A8BF63469946C2
:1038C80022F8029CB8F812309F42BFF67CAF089BE2
:1038D8000BB18B8805E09AF80030002B7FF473AFAA
:1038E8000B8822F8023C6EE7BD4890F83432013B61
:1038F800DBB2182B00F2208109E09A42F4D2B949D0
:1039080031F81200B84921F812000132F5E7012216
:103918009A40B64B1340002B00F00E81B44BB549CA
:103928001B8813F4807F07D02388ADF82C30638878
:10393800ADF82E30A38815E0AF4B1A88ADF82C20CF
:103948005A88ADF82E20AD4A9B881268ADF8303001
:10395800D40409D5D0F83022B1F90640128A94422D
:1039680002DA5B42ADF83030A54CB4F902304FF4BE
:103978007A7203F5E16353434FF4616093FBF0F30C
:10398800A3F5FA73ADF84430B4F9003003F5E163F8
:103998005A43954B92FBF0F21B88A3F2DC53A2F535
:1039A800FA72ADF83230D6F83032ADF846201B8ABC
:1039B8000A88D21AADF834204A88D21AADF83620CF
:1039C8008A88D21AADF83820CA88D21AADF83A20B7
:1039D8000A89D21AADF83C204A89D21AADF83E209D
:1039E8008A89D21AADF84020CA89D31AADF8423074
:1039F8000023844A002122F813100133082BF8D140
:103A0800814A824B12680592814A1B781268814963
:103A18000692814E072202FB031B594572D00B7890
:103A280033B103F1150201239340059A134065D081
:103A380011F806CC069B11F805AC11F8034C11F8E7
:103A4800018CCCEBCC0E03EB4E0E6420BEF90020AB
:103A5800BEF902309B1A9BB211F9022C4FEA5309A6
:103A68005A434FEA4A0792FBF0F212A8C9EB020246
:103A780092B2074414B937F81C0C0CE0B6F90000F0
:103A880037F91C7CB84208DA0444844203DBA742B5
:103A98003846A8BF2046308008E007DD041BBC423A
:103AA80003DB8442A8BF044627463780DEF80A4075
:103AB80011F9047C012000FA0AF02042308812B281
:103AC80017FB00F014BF4FF0FF340124642790FB6C
:103AD800F7F090420ADB4FFA88F25A4392FBF7F26A
:103AE800C9EB020212B28242A8BF0246454B33F824
:103AF8001C9002FB049423F81C4000E0338002363B
:103B080007318AE7424B454FD3F8008000260E2242
:103B180002FB068237F8023F92F90640F0B214FB26
:103B280003F3642493FBF4F43C800BF0ABFA013606
:103B38002044082E3880EAD1304B324E1A68344F70
:103B480012F0200F984632D000200BF09BFA3080FC
:103B5800044601200BF096FA2B4B70801B6819065F
:103B680025D51F4B264AD3F858321B78012B22D172
:103B78003968138891F914E0B2F902201EFB03F3A7
:103B88004FF0320C93FBFCF31FFA83FE91F90630D9
:103B98005B4253436FF0310193FBF1F10EEB0102ED
:103BA800A11893FBFCF37344318018447080D7F854
:103BB80000E0002338E0D7F800E053889EF90610AB
:103BC80011FB03F1322391FBF3F121443180118879
:103BD8009EF9142012FB01F292FBF3F21044E5E780
:103BE80028090020BC380020CC2300209920980107
:103BF800201F0020D02A0020C8220020F0330020F7
:103C08008422002014100020241F002034250020C6
:103C1800782200203B2500205E0B00201210002097
:103C28000133082B325311D00E2101FB03E136F981
:103C38001300B1F90020B1F9021090424FEA430491
:103C4800EEDB0AB28242A8BF0246E9E7A64CD4F8E6
:103C58006CA19AF90830A3B994F8349209F1FF33AA
:103C6800182B72D8DFE803F03571714F7171714804
:103C780071717171715971717171714F657171598A
:103C88003500DFF888B24FF00009984B3BF9021F66
:103C9800BAF90620882000FB09300BF02FF83A68A3
:103CA8000E2380B203FB0922ABF80000B2F9003002
:103CB800B2F9022000B2984203DB13B28342A8BFD4
:103CC800034609F10109B9F1080FABF80030DCD15E
:103CD800C2E79AF8043013B10020718908E0844BD8
:103CE8001B7803F0040303F0FF00002BF4D1014616
:103CF80004F080F8012729E00020F18804F07AF820
:103D08000120318905E00020318904F073F87189B8
:103D1800012004F06FF8022718E00227B81E36F8D1
:103D28001710C0B2013704F065F8082FF6D106273E
:103D38000CE00327F81E36F81710C0B2013704F05C
:103D480059F8072FF6D1042700E00027D8F80030EB
:103D58009A0602D4B9F1050F0AD13846318804F021
:103D680049F8781CC0B2718804F044F80237FFB2F1
:103D7800D8F80030DB0205D494F8A0367BB10BF0FC
:103D8800C9F80CE0DFF888910026B819C0B239F8F4
:103D9800021F04F02FF80D2EEED00136F5E7554B33
:103DA8001878002840F0C681D8F800301E0340F18A
:103DB800C181514E3378033B052B1FD84F4B93F8E5
:103DC8000C3833B1012B09D10BF052FEC0F17F0042
:103DD80004E0D4F8A40603689B689847D4F8A8368A
:103DE80094F8AC261344B3F5807FA8BF4FF48073D2
:103DF8008342D4BFC4F8A836C4F8A8063378023B77
:103E0800092B00F28781DFE813F00A0015004B0048
:103E180085009B00B400C6003E015B0166010023DB
:103E2800C4F8A836C4F8B036354B1B68C4F8B436A5
:103E380003236EE1324B1A68D4F8B43664339A42DD
:103E480040F26881402008F05DFB002840F0628164
:103E58004FF040082B4BD4F8B026234F985C1D46F2
:103E680078B107F09BF9D7F8A836013BC7F8A83610
:103E7800D7F8B036B8F1010803F10103C7F8B03636
:103E8800E8D1D4F8B026184BAA5C002A40F0428149
:103E9800C3F8B0264FF0FF32C3F8B426042338E144
:103EA80026230093184B019303F10C020292492038
:103EB800A3F10A025021023307F060FD002840F008
:103EC8002981D8F800304FF0FF3213F080030FBF7C
:103ED800C4F8B036C4F8B006C4F8B426052304BF45
:103EE800C4F8B426072314E128090020880B002011
:103EF800B8390020B9390020711000208C2B00201F
:103F0800F01E0020C08001082A810108121000203C
:103F1800D62A00208A4A02230021009301910291A7
:103F2800482002F1080307F029FD002840F0F2803C
:103F38004FF0FF33C4F8B436C4F8B0060623E8E0FF
:103F4800804B019303F10C02072502920095A3F11F
:103F5800080247200021043307F010FD002840F034
:103F6800D9804FF0FF33C4F8B006C4F8B4363570C2
:103F7800D0E0754A05230021009301910291532056
:103F880002F1080307F0FAFC002840F0C380C4F8E7
:103F9800B0060823BDE0402008F0B4FA002840F03D
:103FA800B980D4F8B0360D2B00F2BA80DFE803F000
:103FB800070B0E1219202B3035393D4B55596348E4
:103FC80008F008FC59E06248624919E06248634910
:103FD800634A50E0634B644893F80A1893F80B2837
:103FE80049E0624B624893E8060008331B6831E0F9
:103FF80095F8E4375F480C2202FB035595F8E6175D
:1040080008F0E8FB39E0574B5B48B3F84411F7E791
:10401800544B5A48B3F84611F2E7594B59481969B5
:10402800EEE7594B59481988EAE7D4F8B836D80466
:1040380004D54C4B564893F88211E1E7554B0C22B6
:10404800C3F8B02619E0544895F8861195F88721E9
:1040580095F8853108F0BEFB0FE05048B4F8BC165F
:10406800CEE7D8F80030190507D53E4B4C48B3F8D1
:104078008A11B3F9882108F0ADFBD4F8B0360133C2
:10408800C4F8B03646E0474B1B689A0115D5B4F81A
:10409800C036404D8BB9D5F8C4360B93424B0E2031
:1040A8001B680C930BA907F063F94FF48053A5F82C
:1040B800BE360A23337007F0B3F907F03BF929E05D
:1040C80094F8C836002BF6D0364B1B689B01F2D407
:1040D80009233370F1E7354B1A68D4F8B436C8337E
:1040E8009A4204D91F4B93F80C588DB904E008F094
:1040F8004FFA0028F6D10DE0D4F8A40605F0ECFD3F
:1041080094F8C936C4F8A456022B01D10CF059FC16
:104118000123337008F026FA60B10123337009E0F7
:1041280008F036FA0028F5D04FF48053A4F8BE36CC
:104138000A23EEE713B0BDEC0E8BBDE8F08F00BF8D
:10414800E8820108008301084C830108B8A501082A
:10415800D2A50108E7A50108EFA5010803A60108F3
:104168000FA601088C2B002018A60108ACF7FF1F2A
:1041780029A601083DA6010847A6010856A6010878
:104188006C23002065A601080400002075A601081C
:104198007FA60108280900208CA60108A5A6010809
:1041A800B0A60108241F0020F8340020F01E0020CB
:1041B8002DE9F04F2DED028BA44EAFB03478019667
:1041C800002C00F0EE80A24B1868002802F0E38073
:1041D80005F0DEFF9F4C20680AF06CFD002802F015
:1041E800DA8020689C4C0AF062FD092801D03F283B
:1041F8004FD14FF000082568984F46462DB1984892
:1042080039682A4613F098FE10B9B84606B93E46F2
:10421800944B10379F42F1D33746EEB1D6F800C021
:10422800D8F800A023681CF803E01AF803007045CA
:1042380012D15A1C8A4958B92D2B09D8DFF818E22F
:10424800CEF800204FF0200E01F803E0885403E078
:1042580001F803E02260E5E723680BB146450FD07B
:1042680081480FF091FC474507D857F8100B0FF01D
:104278008BFC09200FF00EFBF5E705F095FF0025F4
:1042880023689D42A6D2764B585D0FF003FB01359B
:10429800F6E72368002B42F00380042842F054809C
:1042A8006F4809F001FA02F076B8DFF8E8A1DAF809
:1042B80000000AF0FFFC00285DD0DAF800000AF0E0
:1042C800F6FCDBF8003093F848100646002940F069
:1042D8008280242840F0E080012283F84820DBF81F
:1042E800002092F848000628DFD192F84930502B78
:1042F80001F0338000F2B481342B00F0348500F2F1
:104308005181242B00F0C38600F21E81032B00F09C
:104318006E8240F2F980052B40F00B811A2006F0DE
:1043280083FE4FF00008514B13F8080008F101080C
:1043380006F031FEB8F10B0FF5D14FF000084C4BE9
:1043480013F8080008F1010806F025FEB8F1080F77
:10435800F5D14FF00008474B13F8080008F10108A1
:1043680006F019FEB8F1070FF5D106F025FE2B6807
:10437800002283F84820404B186805F009FF3F4B9E
:1043880093F87E304BB1385905F07BFF0AF012FEE6
:104398000EF080FE3A4B3B4ADA604C34982C01F020
:1043A800FA87394FE359E219002BF6D0DFF8E48099
:1043B800364DC8F80030079300238DF821302E4978
:1043C8002A601423324A8DF8203006AB06920B601F
:1043D800AB46029269E7012904D14D2814BF002297
:1043E80002227AE7022904D13C2814BF00220322C2
:1043F80073E703290CD140284FF0000102D983F854
:1044080048106CE758711971D9719871042264E7E2
:10441800042907D1997983F8490080EA01029A7141
:1044280005225AE705297FF45AAF58791979884245
:10443800987906D970409871481C18710B441E72FF
:104448004DE7B0420CBF0622002246E7B9390020EA
:10445800B038002094380020682200209CA1010870
:10446800382200207CA30108CDA7010803A6010873
:104478000FA60108E7A50108481F0020F40F002037
:1044880000ED00E00400FA05F42A0020441F002093
:10449800C9EC00084C1F0020DFF8C49399F80030DD
:1044A80003F0040303F0FF0E002B7FF418AF232E54
:1044B800DAF800001BD1019A01231370DA4B029A33
:1044C8001860DA4B1860986010201873D8485A6042
:1044D80083F80DE004330360D6480FF055FB05F070
:1044E80063FE99F8003043F0020389F80030D24B9C
:1044F8001B681B78B34201BFD04BD14A1A60D14B1D
:1045080004BFD14ADA60EAE6012B00F06481022B8D
:1045180040F0B487042006F087FD432006F03BFDF9
:104528004C2006F038FD462006F035FD4C2000F002
:104538008ABFC0F06781222B40F0A087502006F088
:1045480073FD4FF0000AEDE32C2B00F0CE8518D850
:10455800282B00F0B1852A2B00F0C185262B40F0CE
:104568008D87BA4E062006F05FFDB6F85C0106F0AE
:104578005EFDB6F85E0106F05AFDB6F8600100F07F
:1045880022BF302B00F05D86322B00F0F2852E2BF7
:1045980040F07487AD4E402006F046FD06F1400A13
:1045A80000F03EBE422B00F0FD8520D83A2B00F0EB
:1045B80075820BD8362B00F01686382B40F05E87B4
:1045C800042006F031FDA14E00F067BD3D2B00F040
:1045D8009882402B00F0D4853B2B40F04F87012078
:1045E80006F022FD9A4B1B68187800F02CBF492B67
:1045F80000F093820FD8462B00F07286472B00F00C
:104608008386452B40F03A87132006F00DFD4FF0C6
:10461800000800F0C6BE4D2B00F086854F2B00F039
:10462800AE864B2B40F02A87884E082006F0FCFC0B
:1046380096F8E00106F0AFFC96F8E10106F0ABFC55
:10464800B6F8E20106F0F3FC96F8E40106F0A3FCE4
:10465800B6F8E60106F0EBFC96F8E80100F0F3BEC8
:10466800722B00F0158455D8692B00F0F6812DD8EF
:10467800652B00F0228115D8522B00F08D86642B13
:1046880040F0FC86072006F0CFFCE72006F083FC0C
:104698006E4B587906F07FFC002006F07CFC042065
:1046A80000F08DBE672B00F0528100F2C681122007
:1046B80006F0BAFC674B1B88B3F5806F8CBF4FF0D0
:1046C800080A4FF0010A4FF000081FE16D2B00F0B7
:1046D800DB8115D86B2B554E00F0538440F23084A3
:1046E8005D4E062006F0A0FC308806F0A0FC70881D
:1046F80006F09DFCB6F904300A2093FBF0F0FAE1CD
:104708006F2B00F01182C0F0CE81702B00F0648214
:1047180000F0B4BE7D2B00F05A8629D8762B00F025
:10472800408409D8742B00F0478340F2EA832F2095
:1047380006F07AFC494EEDE2782B00F01881C0F0C3
:1047480081837C2B40F09A86404E082006F06CFC52
:10475800B6F84C0106F06BFCB6F84E0106F067FCA3
:10476800B6F8500106F063FCB6F8520100F02BBE13
:10477800A42B00F03F8417D8962B73D0A02B00F001
:1047880078847E2B40F07A86304E032006F04CFC6D
:1047980096F8580106F0FFFB96F8590106F0FBFB66
:1047A80096F85A0100F04FBEF12B00F02081FE2B45
:1047B80000F04E84F02B40F06186254E042006F070
:1047C80033FC3368B3F8660006F031FC3368B3F89D
:1047D800640000F0F8BD032006F026FC002006F077
:1047E800DAFB012006F0D7FB112000F02CBE18469A
:1047F80006F01AFC012006F0CEFB0C2006F0CBFBDD
:1048080000F0CDBD062006F00FFC532006F0C3FBD8
:10481800522006F0C0FB462006F0BDFB332006F010
:10482800BAFB002000F0CFBD94380020F40F002020
:10483800B0380020FDA70108A8330020FC9F002005
:10484800EFBEADDE00ED00E00400FA058C2B002081
:104858006C220020040000208422002073830108B9
:10486800B83900200E2006F0DFFBC74B188806F089
:10487800DEFB03F08AFD06F0DAFBC44B1B68C3F3CA
:10488800C000C3F38002800040EA4200C3F3400244
:104898001043C3F3401240EAC20003F01003184368
:1048A80006F0C5FB06F0A4FA06F0CAFBB84B93F86D
:1048B800E40706F070FBB74BEDE00B2006F0B4FB05
:1048C800B14B188806F0B3FB03F05FFD06F0AFFBB1
:1048D800AE4B1B68C3F3C000C3F38002800040EAFC
:1048E8004200C3F340021043C3F3401240EAC2003F
:1048F80003F01003184306F09AFB06F079FA06F065
:104908009FFBA34B93F8E40700F09DBDA24B33F93E
:10491800180090FBFAF008F1010880B206F087FB56
:10492800B8F1030FF2D19D4E308806F080FB7088F5
:1049380006F07DFBB0889A4E06F079FB308806F0C9
:1049480076FB708806F073FBB08800F03CBD102041
:1049580006F06AFB4FF00008924B13F8080008F1C4
:10496800010806F018FBB8F1100FF5D1FDE470202E
:1049780006F05AFB4FF0000B8B4E4FF00E083368D1
:1049880008FB0BF843440BF1010BB3F8250106F0C3
:104998004EFB33684344B3F8270106F048FB3368FD
:1049A8004344B3F8290106F042FB3368434493F8C3
:1049B8002B0106F0F0FA3368434493F82C0106F013
:1049C800EAFA3368434493F82D0106F0E4FA3368B1
:1049D800434493F82E0106F0DEFA33689844D8F879
:1049E8002F0106F02DFBBBF1080FC5D1BDE47020E7
:1049F800674E06F019FB06F1700A96F8D40006F027
:104A0800CAFA96F8D50006F0C6FA96F8D60006F067
:104A1800C2FA96F8D70006F0BEFA96F8D80006F063
:104A2800BAFA96F8D90006F0B6FA073696F8D3001F
:104A380006F0B1FA5645E0D197E4102006F0F4FAF2
:104A48004FF00008594B33F8180008F1010806F038
:104A5800EEFAB8F1080FF5D187E4554E30784000EA
:104A680000F0FE0006F0E0FA4FF00008B2469AF8AF
:104A780000309845BFF479AC4E4B33F8180006F077
:104A8800D6FA08F10108F2E706F0CEFA4A4B1868A0
:104A980006F0D6FA494B188800F095BC042006F0B9
:104AA800C3FA474BF1E2072006F0BEFA454B1888D7
:104AB800FF28A8BFFF20C0B206F06DFA424B186865
:104AC8004FF6FF784045A8BF404620EAE07080B224
:104AD80006F0ADFA3D4B188806F0A9FA2C4B93F86E
:104AE8008D213B4B18684AB10A2358434045A8BF5B
:104AF800404620EAE07080B200F065BC00F30F0089
:104B0800F9E7234E022006F08FFA96F8EC0106F03A
:104B180042FA96F8EB0100F096BC022006F084FAFF
:104B28001B4B988900F04FBC2A4E0B2006F07CFAEC
:104B38003368187806F02FFA3368587806F02BFA9D
:104B48004FF0000BB246DAF80030224E5B440BF10E
:104B5800010B187906F01FFABBF1030FF3D1336884
:104B6800D87906F018FA3368987806F014FA33689A
:104B7800D87806F010FA3368588906F058FA33687E
:104B8800187A00F060BC00BFB4390020D838002083
:104B98008C2B0020D4380020161A00208A220020EE
:104BA80068350020141000206C220020CC2300203F
:104BB800A0330020D02A0020EC1A00201C1A002064
:104BC80014350020E01E0020341E0020F01A0020BA
:104BD800301A0020B83800201E2006F025FAD14BE4
:104BE8001A681278022A4FF0000A984679D1D8F844
:104BF800003003EB8A0393ED080AB2EE048A20EE34
:104C0800080A11F0C9FC80F30800C0B206F0C3F925
:104C1800D8F80030DFEDC47A03EB8A0393ED0B0A72
:104C280020EE270A11F0B8FC80F30800C0B206F0A5
:104C3800B2F9D8F80030DFEDBD7A03EB8A0393EDC3
:104C48000E0A20EE270A11F0A7FC80F30800C0B274
:104C58000AF1010A06F09FF9BAF1030FC7D1BAF1B8
:104C6800070FD8F8003025D193ED110A20EE080A75
:104C780011F092FC80F30800C0B206F08CF9D8F865
:104C8800003093ED120A20EE080A11F085FC80F33B
:104C98000800C0B206F07FF9D8F8003093F84C301D
:104CA80000EE103AB8EE400A11F076FC80F30800E6
:104CB800C0B20DE05344587806F06DF9D8F80030CA
:104CC8005344D87A06F067F9D8F800305344587D31
:104CD8000AF1010A06F05FF9BAF10A0FBFD1FFF72E
:104CE80044BBD8F800305344587806F054F9D8F843
:104CF80000305344D87A06F04EF9D8F800305344BF
:104D08000AF1010A587D06F046F9BAF10A0FE8D10E
:104D1800FFF72BBB16F8010F00283FF426AB06F06F
:104D28003AF9F7E77F4B1B6803EB8A08804B98F842
:104D380085200C2101FB02330AF1010A93F838009F
:104D480006F029F998F8860006F025F998F8870002
:104D580006F021F998F8880006F01DF9BAF1140F49
:104D6800E0D1FFF702BB482006F05EF94FF0000AD9
:104D78006C4B1A68062303FB0A280AF1010A98F803
:104D8800DA0006F008F998F8D50006F004F998F862
:104D9800D60006F000F998F8D70006F0FCF898F865
:104DA800D80006F0F8F898F8D90006F0F4F8BAF147
:104DB8000C0FDDD1FFF7D9BA4FF0000A01264FF0EA
:104DC80000095C4B1B78994533DA5B4B19F803E013
:104DD8004FF0000B56480C2300F1300C03FB0BF38B
:104DE800804613F80CC0F44507D10344586B13F000
:104DF8009AF884463EB9334607E00BF1010BBBF144
:104E08001C0FE7D112E0824410E063450EDA0C2053
:104E180000FB0B80CDF80CC0406B0293C05C06F021
:104E2800BAF8029BDDF80CC00133EEE709F101097D
:104E3800C7E7002E3FF499AA5FFA8AF006F0F4F863
:104E48000026BCE73B4E307806F0EEF84FF000083D
:104E5800B2469AF800309845BFF487AA364B18F83E
:104E680003E0002132480C2200F1300C02FB01F370
:104E780013F80C20724505D1034493F8380006F066
:104E88008AF802E001311C29ECD108F10108E0E7B9
:104E98002A4E162006F0C8F8B6F8A00106F0C7F8A2
:104EA800B6F8440106F0C3F8B6F8460106F0BFF8B4
:104EB800B6F8480106F0BBF8B6F8E20106F0B7F814
:104EC80096F8F90106F067F8002006F064F896F8FD
:104ED800FA0106F060F896F88D0106F05CF896F88D
:104EE8009C0106F058F8002006F055F80D4B1B6899
:104EF8000A20B3F9623093FBF0F080B206F097F81D
:104F0800CBE0082006F090F84FF001085FFA88F02F
:104F180008F1010806F03FF8B8F1090FF6D1FFF7DC
:104F280024BA00BF6C2200200000C84200007A4466
:104F380074830108281F0020291F00208C2B0020C3
:104F4800102006F071F8D24BDFF88C83187800F047
:104F5800020006F020F8CF4B187806F01CF8D8F8B5
:104F6800000006F06DF8D8F8040006F069F8CA4B9E
:104F7800188806F05CF8C94B188806F058F8308E87
:104F880021E2052006F050F8C54B188806F04FF8C6
:104F9800C44B188806F04BF896F8320000F0010070
:104FA80051E205F0D9FF8346122006F03DF8BBF127
:104FB800000F01D1BC4B03E0BBF1100F04D1BB4B78
:104FC800D3F800A05E6801E00026B246584605F016
:104FD800E2FF504606F034F8304606F031F8B44B9C
:104FE800186806F02DF8002006F021F8002006F0D9
:104FF8001EF8D4E1AF4E96F8330080000130C0B2FD
:1050080006F012F896F8330005F0C5FF4FF00008D7
:10501800B3469BF833309845BFF4A7A9A64E16F8B7
:10502800080005F0B8FF06F1100306F1300A13F87E
:10503800080005F0B0FF06F1200313F8080005F09A
:10504800AAFF1AF8080005F0A6FF08F10108E0E732
:10505800082005F0E9FF4FF00008984B33F81800D6
:1050680008F1010805F0E3FFB8F1040FF5D1FFF7E7
:105078007CB90C2005F0D8FF914B186805F0E0FFCB
:10508800904B186805F0DCFF8F4B186897E10420F7
:1050980005F0CAFF8D4B986891E196F8820105F0FA
:1050A8007AFF96F8860105F076FF96F8850105F0F7
:1050B80072FF96F88701C6E1844E072005F0B4FF19
:1050C800B6F8880105F0B3FFB6F88A0105F0AFFF1E
:1050D80096F88C0105F05FFFB6F88E0173E10120A8
:1050E80005F0A2FF794B5879ADE1784E0C2005F018
:1050F8009BFF96F8980105F04EFFB6F8A40105F05D
:1051080096FFB6F8A00105F092FFB6F8A20105F0E7
:105118008EFF96F89B0105F03EFFB6F8A60105F054
:1051280086FFB6F8A8014EE1DFF8B081684E98F81E
:10513800000000EB4000C0B205F076FF4FF0000B16
:1051480098F800309B4506F10206BFF40EA916F840
:10515800020C05F020FF16F8010C00EB800000EBB4
:10516800800000F2EE2080B205F061FF0BF1010B28
:10517800E6E7012005F058FF544B93F89C0162E1E3
:10518800082005F051FF4FF00008504B434408F148
:10519800010893F8900105F0FEFEB8F1080FF4D16C
:1051A800FFF7E3B8494E102005F03EFF707905F08F
:1051B800F2FEB06805F044FF96F8980105F0EBFEA2
:1051C800B6F85C0105F033FFB6F85E0105F02FFF75
:1051D800B6F8600105F02BFFB6F8880105F027FF47
:1051E800B6F88A01EFE0334BDFF8E08093F87C00F3
:1051F800C0EBC000C0B205F017FF08F1280A98F804
:1052080000020023334AD25C904200F020810C3324
:105218003C2BF7D108F10808D045F0D1FFF7A5B825
:10522800B6F8B80205F003FF96F8BA0205F0B3FE27
:10523800043696F8B70205F0AEFE5645F0D1FFF7F2
:1052480094B8E020214E05F0EFFE06F1800AB6F88A
:105258003A0200F03F0005F0EAFEB6F83A02C0F361
:10526800861005F0E4FE96F83802000905F093FE72
:1052780096F8380200F00F0005F08DFE043696F817
:10528800350205F088FE5645E1D1FFF76EB800BF3C
:10529800341A00203A1A0020381A0020361A002042
:1052A800AC1A0020AE1A0020F41A0020B012002018
:1052B80044350020F40F002028100020681000203A
:1052C800ACF7FF1FB0F7FF1FB4F7FF1F8C2B0020B0
:1052D800362D0020B03300203C1A0020A0330020D7
:1052E8000D2005F0A1FE0BF071F9D94E40F0020037
:1052F800C0B205F050FE308805F0A2FEF06805F057
:105308009FFE0AF0C1FA5AE005F03CFE824684206E
:1053180005F08AFE504605F093FECD4BDA680AF197
:10532800800393428CBFCAEB02084FF080080DF14E
:10533800380B0AF05FFB5046424659460BF07AF9A3
:105348004FF000088246D045BFF60FA81BF80800AA
:1053580005F021FE08F10108F5E7BE4E042005F02E
:1053680063FE012005F017FE96F80C0805F013FE01
:1053780096F80A0805F00FFE96F80B0863E00B2074
:1053880005F052FE002005F006FE002005F003FEA1
:10539800002005F000FE0EE0012005F045FE00208B
:1053A80051E0AD4B13F8080008F1010805F0F3FDD2
:1053B800B8F10B0FF5D1002005F042FE002005F0F2
:1053C8003FFEFEF7D2BF05F032FEFEF7CEBFA34E7A
:1053D800032005F029FE336893F81D0105F0DBFD75
:1053E800336893F81E0105F0D6FD336893F81F0162
:1053F80029E040F24D85F22B00F0D18540F2F98585
:10540800F32B40F0428705F0A7FDFF28944E40F0AB
:105418007F864FF0000806F180004146602286F83A
:105428007F8012F03CFD8DF817809DF8173096F8B4
:10543800E220DFF82C829A4200F2FD85012005F077
:10544800F3FD98F87F0005F0A6FDFEF78EBF05F086
:10545800A2FDB8F8020205F0EAFD98F8040205F08A
:105468009AFD98F8050205F096FD98F8070205F0F0
:1054780092FD98F8060205F08EFDCBE6512B32D14D
:10548800774B93F87D30012B28D805F065FD714ED8
:1054980086F80C0805F060FD86F80A0805F05CFD42
:1054A80086F80B081AE000F27784CD2B00F05782BB
:1054B80040F25F82D02B00F0B38340F2BD83D12B42
:1054C80000F00784D22B40F0E786664B1B7803F088
:1054D800040303F0FF08002B00F03984002005F0D6
:1054E800A3FDFEF742BF00F23282372B33D1537946
:1054F8004FF00708B3FBF8F8C8EBC8029B1A13F083
:10550800FF0F02D00BF0CAFBE8E75FFA88F808F152
:10551800FF385FFA88F8B8F1FF0FDFD005F01CFDFF
:105528005FFA80FB4FFA8BF004F03AFC064600283D
:10553800E8D080F800B005F01BFD708005F00CFD88
:10554800307105F009FD707105F006FDF07105F088
:1055580003FDB071DBE700F238812B2B04D105F095
:10556800FBFC3C4B5871B9E700F28880252B07D12A
:10557800384B00229A6005F005FD0DF083FDADE77C
:1055880040D8232B40F0888605F0E6FC1328834694
:10559800B8D8DFF8C8A0DAF8006005F0DDFC002212
:1055A80031490C23534301EB030E9EF838E086453E
:1055B80024D10B440FFA8BFB06EB8B0893F83030A1
:1055C80088F8853005F0C8FC88F8860005F0C4FC2A
:1055D80088F8870005F0C0FC244B254A1A6088F833
:1055E8008800244BDAF8000018600021853004F0A8
:1055F80041FD214B80F0010018706FE701321C2A31
:10560800CED17FE7272B0DD105F0B2FC114EA6F8BD
:105618005C0105F0ADFCA6F85E0105F0A9FCA6F852
:1056280060015BE7292B40F0378605F0A1FC094EA5
:10563800A6F8880105F09CFCA6F88A0105F08CFC08
:1056480086F88C0105F094FCA6F88E0146E700BFA9
:10565800400000208C2B002003A601086C220020AB
:10566800F40F0020B839002074830108A01200202C
:10567800D02C0020EC33002002000020312B34D144
:1056880005F06AFC1F2880463FF63CAF2B685B7923
:10569800082B7FF437AF05F06BFCCA4E08F18E0873
:1056A80006EB880A00F03F00AAF8020005F060FC4B
:1056B800BAF80230800100F4FE501843AAF802003C
:1056C80005F04AFC000106F8280005F045FC16F82C
:1056D800283000F00F00184306F8280005F03CFCBD
:1056E8008AF801000CF0E0FFF8E63CD82D2B22D117
:1056F80005F032FCB34E86F8980105F039FCA6F89F
:10570800A40105F035FCA6F8A00105F031FCA6F8C7
:10571800A20105F021FC2B6886F89B015B79082B18
:105728007FF6DCAE05F024FCA6F8A60105F020FC07
:10573800A6F8A801D2E62F2B40F0AE85DFF88482C8
:1057480008F1400A05F014FCA8F8B80205F004FCBA
:1057580088F8BA0205F000FC08F1040888F8B702D6
:10576800D045EFD1BAE6332B05D105F0F5FB954BC3
:1057780083F89C01B2E6352B40F08E8505F0ECFBF2
:105788000B2882463FF6BEAE8F4B1E6805F0E4FB41
:1057980003283FF6B7AE062303FB0A6888F8DA0049
:1057A80005F0DAFB88F8D50005F0D6FB88F8D600B6
:1057B80005F0D2FB88F8D70005F0CEFB88F8D800B2
:1057C80005F0CAFB88F8D90088E6432B22D105F0FA
:1057D800C3FB7C4E0023B360707105F0D3FB0DF062
:1057E80051FC05F0B9FB86F8980105F0C1FBA6F855
:1057F8005C0105F0BDFBA6F85E0105F0B9FBA6F853
:10580800600105F0B5FBA6F8880105F0B1FBA6F824
:105818008A0163E640D83C2B0BD16B4ED6F800A02A
:1058280005F09AFB8AF800003368187809F0A4FCA0
:1058380054E614D8392B40F02F8505F08DFB614EC6
:1058480086F8820105F088FB86F8860105F084FB5E
:1058580086F8850105F080FB86F887013EE63E2B39
:1058680009D105F079FB574E86F8EC0105F074FB79
:1058780086F8EB0132E6412B40F00E854FF0000828
:1058880005F06AFB4F4B434408F10108B8F1080FD3
:1058980083F89001F4D121E64A2B04D105F068FB86
:1058A800484B98811AE60CD8442B04D1474B012267
:1058B80083F87E2012E6482B40F0EE840AF0E8F8E0
:1058C8000CE64C2B19D105F047FB3E4E86F8E0015B
:1058D80005F042FB86F8E10105F04AFBA6F8E20173
:1058E80005F03AFB86F8E40105F042FBA6F8E6016C
:1058F80005F032FB86F8E801F0E54E2B40F0CC8449
:1059080005F02AFB112882463FF6FCAD2D4E05F026
:1059180023FB0AF1D40A06EB4A03B046987005F057
:1059280027FB40F2ED23984205DD40F6CA03984272
:10593800A8BF184601E040F2EE2008EB4A08A0F2A2
:10594800EE20192390FBF3F088F80300C6E5D32B6B
:105958007FF4A9AD05F00CFB1D4B1880BEE51D4B6F
:105968001B7858073FF5BAAD1B4B4FF4C8721A8025
:10597800B4E5C92B3CD105F0EFFA184B1A7810B1F1
:1059880042F0020201E022F002021A7005F0E4FA85
:10599800134B144E187005F0F5FA306005F0F2FA62
:1059A800706005F0E5FA104B188005F0E1FA0F4B2E
:1059B800064A188092F8323043F0020382F83230F7
:1059C8008CE500BF8C2B00206C220020F40F0020F7
:1059D800A4120020B839002066120020341A0020D2
:1059E8003A1A00203C1A0020381A0020361A0020E3
:1059F8002ED8C82B40F0508492F805804FEA5808FA
:105A0800B8F1120F3FF67EAD4FF0000AC24507D23B
:105A180005F0AEFA0EAB23F81A000AF1010AF5E711
:105A280042460023434507DA0EA931F81300CD4951
:105A380021F813000133F5E7122A05D0C94B0021DC
:105A480023F812100132F7E7C74B01221A7045E517
:105A5800CA2B40F09980C54B1A681278022A4FF079
:105A6800000A984672D1D8F8006005F075FA07EE7A
:105A7800900AF8EE677AB2EE048AC7EE887A06EBE7
:105A88008A0BD8F80060CBED087A05F065FA07EEC6
:105A9800900A9FEDB77AF8EE677A06EB8A0BC7EEA5
:105AA800877AD8F80060CBED0B7A05F055FA07EE47
:105AB800900A9FEDB07AF8EE677A06EB8A0BC7EE8C
:105AC800877A0AF1010ABAF1030FCBED0E7ACAD12F
